:100000000C94AE010C94F5010C94F5010C94F501DF
:100010000C94F5010C94F5010C94F5010C94F50188
:100020000C94F5010C94F5010C94B91F0C948B20E1
:100030000C9461160C94F5010C94F5010C94F501E7
:100040000C94F5010C94F5010C94F5010C94F50158
:100050000C94F5010C94AE160C94F5010C94F5017A
:100060000C94F5010C94F5010C94F5010C94F50138
:100070000C94F5010C94F5010C94F5010C94F50128
:100080000C94F5010C94F5010C94F5010C94F50118
:100090000C94F5010C94F5010C94F5010C94F50108
:1000A0000C94F5010C94F5010C94F501F00CF00C96
:1000B000220D220D6F0D960E960E960E8D0D260EAC
:1000C000370E370E320F320F440F440F3B0F440FE1
:1000D000440F440F320F320F400F440F440F400FB4
:1000E000F8201F2117221F2117226B218E21172292
:1000F000E521F42101513B5C3D5C3F5C415C435C8C
:10010000455C475C495C4B5C4D5C4F5C515C535CAF
:100110003A5C3C5C3E5C405C425C445C465C485CF7
:100120004A5C4C5C4E5C505C525C0000395C3B5C51
:100130003D5C3F5C415C435C455C475C495C4B5CBF
:100140004D5C4F5C515C535C3A5C3C5C3E5C405C9B
:10015000425C445C465C485C4A5C4C5C4E5C505C77
:10016000525C0000395C3B5C3D5C3F5C415C435C45
:10017000455C475C495C4B5C4D5C4F5C515C535C3F
:100180000100775C785C795C7A5C7B5C7C5C7D5C94
:100190000000000000000000000000009E5C9F5C6A
:1001A000A05CA15CA25CA35CA45CA55CA65CA75C53
:1001B0000000000000000000A85CA95CAA5CAB5C29
:1001C000AC5CAD5C0000000000000000000000001E
:1001D000000000000000000000000000000000001F
:1001E000000000000000000000000000000000000F
:1001F00000000000000000000000000000000000FF
:1002000000000000000000000000000004033000B7
:1002100000000E034A0061006E006B00650079006B
:10022000000010034D00650064006500740061006B
:10023000690000000403090409029F00040100A0F2
:10024000FA09040000010301010009211101000164
:100250002240000705810308000A09040100010388
:10026000000000092111010001223200070582036C
:1002700020000A080B02020101000009040200002C
:100280000101000009240100010900010309040320
:1002900000020103000007240100014100062402BE
:1002A00001010006240202020009240301030102E5
:1002B00001000924030204010101000905040240B0
:1002C0000005000005250101010905830240000524
:1002D000000005250101031201100100000008EDD6
:1002E000FEB0F401000102030105010980A10185AE
:1002F0000319012AB700150126B700950175108171
:1003000000C0050C0901A101850419012AA00215EC
:100310000126A002950175108100C005010906A102
:1003200001050719E029E7150025019508750181E8
:10033000029501750881010507190029FF1500269E
:10034000FF00950675088100050819012905950526
:1003500075019102950175039101C00011241FBE22
:10036000CFEFDAE0DEBFCDBF04B603FE27C0809139
:100370009F039091A003A091A103B091A2038730A5
:10038000904BA740B04BD1F410929F031092A00362
:100390001092A1031092A20314BE84B7877F84BF7A
:1003A0000FB6F894A89580916000886180936000F2
:1003B000109260000FBEE0E0F8E3099511E0A0E0C4
:1003C000B1E0EAE7F5E402C005900D92AC39B1075F
:1003D000D9F723E0ACE9B1E001C01D92AF39B20713
:1003E000E1F70E94A61C0C94BB220C94000081E053
:1003F000089581E008950C94F70108950C94FD018F
:100400001F93CF93DF9300D000D01F92CDB7DEB7FC
:1004100049835A836B833091000289819A8131111B
:1004200014C0662359F0222349F00E94F113182FBB
:10043000682F89819A810E949A1303C00E94C51374
:10044000182F69817A81812F04C00E94F11369817C
:100450007A810F900F900F900F900F90DF91CF91B6
:100460001F910C94B402FC01262F408151816281BE
:10047000738184810C940002CF93DF93EC0160E0E0
:100480000E943302BE01DF91CF910C94FE010E94C5
:100490001615811102C00E94B6150C94A1040C948B
:1004A0009D0408950E94200F0E9451022FEF84E3C3
:1004B0009CE0215080409040E1F700C000000C9487
:1004C000D4160F931F93CF93DF93EC0161E00E944A
:1004D00033028C01BE010E94FB01882379F1BE0129
:1004E000C8010E94DC05882349F1BE01C8010E94B1
:1004F000B008882319F1BE01C8010E9402098823AF
:10050000E9F0BE01C8010E942D0A8823B9F08A8152
:10051000882369F001158CE5180731F00E3D1C4564
:1005200031F40E94B6150AC00E94520207C0CE01E3
:10053000DF91CF911F910F910C94F90180E0DF9131
:10054000CF911F910F91089508950C94A40281E01A
:1005500008950C94A702CF93C82F0E94A5028C2F58
:100560000E94A902CF91089526E4829FC001112420
:10057000FC0127E0729FE00DF11D1124E60FF11D33
:10058000EE0FFF1FEC50FF4F859194910895CF938C
:10059000DF930E94B4020E94B803EC0181159245DA
:1005A000F0F5C11581E5D80708F0A9C0C83ED1050E
:1005B00028F5C03ED10508F0D7C0C83AD10578F477
:1005C000C53AD10508F074C0C130D10509F4CCC0DA
:1005D00008F4C8C0C430D10508F0C6C0C3C0CF3BC2
:1005E000D10508F0BFC0C85AD0E0CC0FDD1FC75EF0
:1005F000DE4F0990D881C02DD464B6C0C11590E5F6
:10060000D90708F060C0C11520E4D20708F058C02F
:10061000CE019A9581159F4108F4A6C0A3C0C115CB
:1006200086E5D80718F5C11595E5D90708F080C00B
:10063000C11524E5D20708F076C09E012370332748
:100640008C2F86958695C115D34508F05DC0C1E015
:10065000D0E002C0CC0FDD1F2A95E2F720E2829F96
:10066000C0011124C82BD92BDC687EC0C1152AE536
:10067000D20778F4C11589E5D80708F063C0C11521
:1006800098E5D90708F46EC0DC2FCC27C06FD06A7C
:100690006BC0CE0190568115904208F063C08D2F3B
:1006A0008F710E944C04DD27D0628F71D82B5CC003
:1006B000C55AD0E0C95BDE4FC881D0E0D06454C0D9
:1006C000DF70D06A51C0CE0174E0969587957A9517
:1006D000E1F783709C2F937021E030E002C0220F7D
:1006E000331F9A95E2F73C68382BCF70C695C695B4
:1006F00080E2C89FE0011124C22BD32B35C0DC2F30
:10070000CC27C16FD06A30C0C1E0D0E002C0CC0FAE
:10071000DD1F2A95E2F720E2829FC0011124C82B39
:10072000D92BDA6821C0DC2FCC27C46FD06A1CC05B
:100730008C2F0E944C048F71C82FD0E0DC2FCC2767
:10074000D06212C08C2F8F700E944C0494E0D6951A
:10075000C7959A95E1F7CF70D0E0DC2FCC27D06910
:10076000C82B02C0C0E0D0E0CE01DF91CF91089548
:100770008238910569F1B0F48133910509F46DC0B7
:1007800048F48932910509F463C08A32910509F46D
:1007900069C008958533910509F455C089339105E1
:1007A000B9F00895833E910569F138F4803E9105D2
:1007B000B1F0823E910509F10895863E9105A9F1B7
:1007C000873E9105B9F1843E910509F064C023C0CC
:1007D0002091A30220FD4FC021FD4DC008958091BE
:1007E000A30280FD44C08091A40280FF44C0809198
:1007F000A30284FD42C083EE4DC08091A30282FF1C
:1008000038C0F5CF8091A30282FD33C08091A4024D
:1008100080FD31C0ECCF8091A40281FF32C0809175
:10082000A30284FD2AC087EE35C08091A30283FF16
:1008300026C0F5CF8091A30283FD21C08091A40240
:1008400081FD1FC0ECCF8091A30285FD1CC01DC09F
:100850008091A30285FD19C016C08091A30286FD78
:1008600016C017C08091A30286FD13C010C089E393
:1008700011C082EE0FC080EE0DC080E00BC086EE8E
:1008800009C084EE07C089E205C085E303C08AE29F
:1008900001C081E390E008959091A30292FF0DC002
:1008A000282F2871283019F4877F846006C0282FEC
:1008B0002471243011F48B7F886093FF0DC0282FA2
:1008C0002871283119F4877E846106C0282F24718D
:1008D000243111F48B7E88612091A40220FF0DC089
:1008E000382F3871383019F4877F816006C0382F6F
:1008F0003171313011F48E7F886021FF0DC0282FB7
:100900002871283119F4877E816106C0282F217152
:10091000213111F48E7E886194FD877E0895E82F41
:10092000F0E0EF56FD4F80810895089580EA8A95A2
:10093000F1F7089508950C949A040C949B040C9478
:100940009A040C949F04CF93DF93A1E5B1E04BE5AB
:1009500051E061E070E08D91E82FE295EF70F0E0FA
:1009600021A18F70EB0102C0CC0FDD1F8A95E2F749
:10097000CE019C2F9095922391A392A1892B82A3C3
:100980004A175B0741F7AAE4B1E041E551E061E0B5
:1009900070E08D91E82FE295EF70F0E021A18F706B
:1009A000EB0102C0CC0FDD1F8A95E2F7CE019C2F30
:1009B0009095922391A392A1892B82A34A175B075A
:1009C00041F7E7E8F2E0A1E9B2E081E992E01192B3
:1009D0001D928E179F07D9F78AE00E947905DF9153
:1009E000CF910C9447026F927F928F929F92AF9219
:1009F000BF92CF92DF92EF92FF920F931F93CF930C
:100A0000DF9381E5882E81E0982E07E812E091E9D6
:100A1000A92E92E0B92E712CCC24C394D12CF401D0
:100A200081914F01C82FC295CF70D0E099A18F70EE
:100A3000760101C0EE0C8A95EAF7892F8E2989A3E9
:100A40008AA16E2C609486218AA30E949604EAE40F
:100A5000F1E040E050E020E03191A32FA295AF708B
:100A6000B0E090968C9190E03F7002C0959587958C
:100A70003A95E2F780FD07C08C2D042E01C0880F47
:100A80000A94EAF701C080E0282B4F5F5F4F4730A0
:100A9000510511F789A1682269A28AA1E82AEAA270
:100AA000F8018081281719F0208381E001C080E0DF
:100AB000782A0F5F1F4FA016B10609F0B0CF272D7F
:100AC0004AE061E972E087E892E00E947A050E94BC
:100AD0004F02872DDF91CF911F910F91FF90EF90E3
:100AE000DF90CF90BF90AF909F908F907F906F904E
:100AF00008950895FF920F931F93CF93DF938C0176
:100B0000F62ED72FC42F222349F081E080939E0137
:100B10000E94931690939D0180939C0180919E0169
:100B20008823C1F080919C0190919D010E949F16A5
:100B3000069780F0EF2DFD2FD8014C2F50E0CD010E
:100B4000801B910B841795071CF48D918193F7CF2F
:100B500010929E01DF91CF911F910F91FF90089508
:100B600084E080939B0289E080939C0280919D02A7
:100B7000807F886080939D02E3EAF1E08FEF8193AC
:100B800091E0EB3EF907D9F71092A2011092A10172
:100B90001092A00110929F01089590919B02292F1D
:100BA0002F7095959595959595959F523CE0239F2F
:100BB000900D1124890F0895EF92FF920F931F93C8
:100BC000CF93DF93FB018E3A2CE5920708F044C0E7
:100BD0008E393CE5930708F040C180392CE5920737
:100BE000F0F483383CE5930708F0D1C081382CE558
:100BF000920758F487373CE5930708F09FC08F327F
:100C00002CE5920708F065C0C9C181383CE593071F
:100C100009F4A1C082389C4509F4A7C0BFC18C3932
:100C20003CE5930778F482392CE5920708F0F1C08F
:100C300080393CE5930709F4B3C081399C4509F438
:100C4000C2C0ACC18C393CE5930709F4ECC08D39C6
:100C50009C4509F4F7C0A2C1843B3CE5930709F425
:100C60003CC1D8F4803B3CE5930709F419C150F42A
:100C70008E3A3CE5930709F4FBC08F3A9C4509F492
:100C800001C18CC160919C022281823B3CE59307AB
:100C900009F417C108F40FC11AC1873B2CE592076C
:100CA00009F434C150F4853B2CE5920709F415C1D1
:100CB000863B9C4509F421C171C1893B2CE5920713
:100CC00009F44DC108F438C18A3B9C4509F458C168
:100CD00065C120919C02E22EE2943FE0E322322F94
:100CE0003F702CE0F22E239FF00C1124C28101ED05
:100CF000080F10E0CC2391F0E801CD55DE4F28819C
:100D00002F3F39F50E94CD05182F2F2D482F6E2D1E
:100D100085EA92E00E94471718831BC00D551E4FAD
:100D2000F80140814F3F31F02F2D6E2D85EA92E082
:100D30000E9457178FEFF801808331C1228122234F
:100D400041F087578F7090919B02907F892B809301
:100D50009B02C0E024C182818823D9F320919B02A9
:100D6000822F8F70B1F3815F0DC08281882389F358
:100D700020919B02822F8F70482F50E049305105FF
:100D800044F78F5F982F9F70822F807FDFCF228163
:100D90002223F9F289588295807F90919B0237C077
:100DA00082818823B1F220919B02822F85958595BF
:100DB000859585958B3F6CF2815F982F9295907FFA
:100DC000822F8F70C3CF8281882319F220919B02DA
:100DD000822F859585958595859586300CF0B9CFC0
:100DE00091E0980F9295907F95959595959595950D
:100DF000392F3295307F2F70232B20939B021816AA
:100E00000CF0A7CF97FFA5CF8295807F922F9F7080
:100E10009DCF2281222309F49CCF82598F7090911B
:100E20009C02907F39C08281882309F492CF20915F
:100E30009C02822F8F7009F48CCF815F982F9F7056
:100E4000822F09C08281882309F483CF80919C027C
:100E500091E0980F9F70807F1FC02281222309F4A8
:100E600078CF8E598295807F90919C029F7014C09C
:100E70008281882309F46DCF80919C02982F907F06
:100E8000905109C08281882309F463CF80919C022C
:100E9000982F907F905F8F70892B80939C0259CF01
:100EA0008281882309F455CF60919C0262956F700E
:100EB00020E04BE71DC021112FE762956F7040E4E1
:100EC00017C021112FE762956F7041E411C0211105
:100ED0002FE762956F7042E40BC08281811102C0DE
:100EE00020E001C02FE760919C0262956F7043E49F
:100EF00085EA92E00E9437172CCF8281811102C0CF
:100F00008FEF01C081E08093A10123CF82818823EC
:100F100009F41FCF80919D02282F2F7091E0920F2E
:100F20009F70807F892B80939D02982F9F7009F07E
:100F300010CF807F822B10C08281882309F409CFD3
:100F400020919D02822F8F7009F403CF815F982F2B
:100F50009F70822F807F892B80939D02FACE8281A1
:100F6000882339F060919C0262956F7040E050EEEA
:100F700010C060919C0262956F7040E050E009C023
:100F800082818823B1F360919C0262956F704FEF6C
:100F90005FE185EA92E00E946717DBCEC1E08C2F0B
:100FA000DF91CF911F910F91FF90EF90089585EA07
:100FB00092E00E94821980919F019091A0010E946D
:100FC0009F1620919D022F7030E08217930778F1D1
:100FD0000E9493169093A00180939F018091A1019C
:100FE000882329F160919C0262956F702091A20183
:100FF00041E085EA92E00E9437179091A10180912B
:10100000A20197FF0FC0282F30E0692F7727619545
:101010000CF47095261737072CF41092A201109249
:10102000A1010895890F87FD8FE78093A20108959C
:10103000AF92BF92CF92DF92EF92FF920F931F93E6
:10104000CF93DF937C015B01C42FD22FFC018281FF
:101050008823F9F04093ED010E9493169093EC01E0
:101060008093EB0180E28C0F883008F06EC0C7706F
:1010700081E001C0880FCA95EAF7DF91CF911F91F7
:101080000F91FF90EF90DF90CF90BF90AF900C94B6
:10109000A80C8091ED01481335C08091EB0190912F
:1010A000EC010E949F166C01B701C5010E94D91185
:1010B000C816D90638F510E21D0FCD17B9F080E239
:1010C0008C0F883040F4C77081E001C0880FCA954A
:1010D000EAF70E94AF0C183058F581E09D2F977009
:1010E00001C0880F9A95EAF70E94A80C802F0E94F1
:1010F000950C183050F5D77081E001C0880FDA9553
:10110000EAF70AC080E28C0F8830F8F4C77081E0FB
:1011100001C0880FCA95EAF7DF91CF911F910F9117
:10112000FF90EF90DF90CF90BF90AF900C94AF0CFA
:10113000802FDF91CF911F910F91FF90EF90DF9063
:10114000CF90BF90AF900C94950CDF91CF911F91F1
:101150000F91FF90EF90DF90CF90BF90AF900895E8
:101160000F939C01CB01233F4CE5340731F188F408
:10117000283DFCE53F07D9F0293D4CE5340779F1DE
:10118000273D3C45A9F506E221EE41EE67ED7CE501
:101190002BC0253FFCE53F07E1F0A8F0263F3C458A
:1011A00039F507E225EE46EE66EF7CE51DC007E265
:1011B00025EE45EE68ED7CE517C006E221EE40EE37
:1011C00063EF7CE511C007E225EE44EE64EF7CE5B9
:1011D0000BC006E221EE42EE65EF7CE505C008E2B9
:1011E00021E045EE69ED7CE50E94180880E008C02A
:1011F000FC018281882319F01092ED0101C081E089
:101200000F910895CF93DF93EC01FB018281882336
:1012100009F41FC1C230FCE5DF0708F41BC1C63169
:101220009CE5D90738F09E012A5F3C4529303105FD
:1012300008F010C10E9429159093A4028093A30284
:10124000C031ECE5DE0709F4C3C008F041C0C83086
:101250008CE5D80709F49AC0F0F4C430ECE5DE0759
:1012600009F487C068F4C2308CE5D80709F477C068
:10127000C330DC4509F0E3C08091A302826076C0F0
:10128000C630ECE5DE0709F46EC008F07BC0809143
:10129000A30288606BC0CC308CE5D80709F485C008
:1012A00068F4CA30ECE5DE0709F474C008F079C0D0
:1012B0000E94200F8091A302806858C0CE308CE538
:1012C000D80709F476C008F07FC08091A3028BC0D4
:1012D000CB3FECE5DE0709F44FC018F5C3318CE5D0
:1012E000D80709F47DC078F4C131ECE5DE0709F4D4
:1012F00073C0C231DC4509F0A2C00E94200F80916A
:10130000A3028F7733C0C5318CE5D80709F472C0CA
:1013100008F486C0CA3FDC4509F091C08091A40260
:101320003EC0CF3FFCE5DF0709F45FC058F4CD3F76
:101330009CE5D90709F444C008F43FC08091A40299
:1013400082602DC0C130FDE5DF0709F475C008F4E7
:101350005DC0C230DD4509F072C080E06EC0809192
:10136000A302816003C08091A30280618093A302E5
:1013700066C08091A30211C08091A4028260809314
:10138000A4025DC08091A3028062F0CF8091A3028D
:101390008064ECCF8091A30288608460E7CF816095
:1013A000EECF8091A3028E7FE1CF8091A3028D7F4B
:1013B000DDCF8091A302877FD9CF8091A40218C08E
:1013C0008091A4028D7FDBCF8091A3028F7ECECF50
:1013D0008091A3028F7DCACF8091A3028F7BC6CF5D
:1013E0008091A302877F8B7FC1CF8091A4028D7FE4
:1013F0008E7FC5CF8091A30282FB222720F991E046
:10140000922790FB82F990FB83F9B0CF8091A402E0
:10141000982F909591708E7F892B90FB81F9AFCF9B
:101420000E94200F8091A30287FB222720F991E0E0
:10143000922790FB87F99ACF81E00E94B81580919E
:10144000A3029091A4020E943A150E94200F80E00E
:1014500001C081E0DF91CF910895CF93DF93863172
:101460009C4541F5EB010E947214982F8A812091CE
:10147000000130910101882379F09A7A81E009F422
:1014800080E08093EE01911102C069E201C065E342
:10149000C9010E94FF150AC08091EE01811102C0AE
:1014A00069E201C065E3C9010E9401160E94B314FC
:1014B00080E001C081E0DF91CF9108959093F40125
:1014C0008093F3010895E091F301F091F4013097D6
:1014D00021F00190F081E02D099480E00895E091E1
:1014E000F301F091F401309721F00280F381E02DB7
:1014F000099408952091F1013091F20128173907DC
:1015000071F09093F2018093F101E091F301F09179
:10151000F401309721F00680F781E02D09940895B9
:101520002091EF013091F0012817390771F0909365
:10153000F0018093EF01E091F301F091F401309715
:1015400021F00084F185E02D0994089585B7806825
:1015500085BF85B7806885BF089508950C94AD0A4E
:101560000C94AE0A0C94AD0A0C94AD0A0E94A60A23
:101570000E94B20A0C94B00A81E008950C94BC0A4F
:101580000E948A160E94A3040E94E5160C94B40AD5
:10159000AF92BF92CF92DF92EF92FF920F931F9381
:1015A000CF93DF93CDB7DEB72A970FB6F894DEBF9F
:1015B0000FBECDBF0E94F3040E94BE0A811111C06C
:1015C0008FEF89838A831B820E9493168160782F14
:1015D0009D838C8349815A816B818D810E94600B30
:1015E00040C086EFA82E81E0B82E00E010E0C02EAB
:1015F000802F0E948F04E82EF501D1905F01D8263C
:1016000031F40F5F1F4F0A30110589F7D9CF809150
:101610007B0281FD0E94950480E0FF24F3949D2DC0
:101620009F21D1F08E83CF82EF2081E009F480E00A
:1016300088870E9493168160782F9A8789874E81C8
:101640005F8168858A850E94600BF801EA50FE4F31
:101650008081F826F08205C08F5FFF0C8730F9F695
:10166000D0CF0E94D7070E94630A9091F501891795
:10167000B1F00E94630A8093F5012A960FB6F894A0
:10168000DEBF0FBECDBFDF91CF911F910F91FF90B5
:10169000EF90DF90CF90BF90AF900C94AB022A9662
:1016A0000FB6F894DEBF0FBECDBFDF91CF911F9173
:1016B0000F91FF90EF90DF90CF90BF90AF90089583
:1016C000CF93DF93CDB7DEB72B970FB6F894DEBF7D
:1016D0000FBECDBF4F83588769877A878B87DE011E
:1016E000119686E0FD0111928A95E9F785E0FE01E9
:1016F000379601900D928A95E1F749815A816B8165
:101700007C818D819E810E94DC112B960FB6F8940E
:10171000DEBF0FBECDBFDF91CF910895FC01808168
:1017200091810E9433140895CF93882309F49CC0BB
:10173000C82F8238C1F40E94630A81FD95C069E315
:1017400080910001909101010E94FF150E94B31445
:101750002FEF81EE94E0215080409040E1F700C0EF
:10176000000069E319C0833801F50E94630A80FD17
:101770007BC063E580910001909101010E94FF15FB
:101780000E94B3142FEF81EE94E0215080409040EE
:10179000E1F700C0000063E5809100019091010134
:1017A0000E940116CF910C94B3148438C1F40E94A6
:1017B000630A82FD59C067E48091000190910101A4
:1017C0000E94FF150E94B3142FEF81EE94E0215088
:1017D00080409040E1F700C0000067E4DDCF8CEF6F
:1017E0008C0F813AD0F46C2F80910001909101010F
:1017F0000E94C915882349F06C2F809100019091B7
:1018000001010E9401160E94B3146C2F8091000107
:10181000909101010E94FF15C5CF80E28C0F8830A6
:1018200048F4C77081E001C0880FCA95EAF70E94AA
:101830007514B8CFEBE5EC0FE33040F4F0E0E75778
:10184000FE4F808190E0CF910C947A0AC85AC7313C
:1018500058F4EC2FF0E0EE0FFF1FE55AFE4F8081A9
:101860009181CF910C94900ACF910895882309F427
:101870005BC0682F823879F40E94630A81FF54C0EC
:1018800069E380910001909101010E94FF150E947F
:10189000B31469E310C08338B1F40E94630A80FF77
:1018A00043C063E580910001909101010E94FF1502
:1018B0000E94B31463E580910001909101010E94A0
:1018C00001160C94B314843879F40E94630A82FFE1
:1018D0002BC067E480910001909101010E94FF15E7
:1018E0000E94B31467E4E7CF8CEF860F813A18F3B8
:1018F00080E2860F883048F4677081E001C0880F6D
:101900006A95EAF70E947B14DCCF8BE5860F833063
:1019100020F480E090E00C947A0A685A673120F451
:1019200080E090E00C94900A0895CF93C82F0E9415
:10193000940BC93349F42FEF87EE93E02150804098
:101940009040E1F700C000008C2FCF910C94360C32
:10195000882321F00E9475140C94B31408958823F1
:1019600021F00E947B140C94B3140895CF92DF925F
:10197000EF92FF920F931F93CF93DF937C01D62FAB
:10198000C72FFC01058102950F70128111110E9471
:1019900092140E946B14882399F0112389F08C2FE4
:1019A000807F803421F080E28D0F883048F082E023
:1019B0000E94FD140E946B1491E0D82ED92601C01C
:1019C000D12CCC2EC2948FE0C8228C2D90E08C308C
:1019D000910508F0ABC1FC01EA5AFF4F0C94732249
:1019E0008C2F807FCF70882311F0C295C07F112388
:1019F00099F0CC2309F486C180E28D0F883010F075
:101A0000D11104C08C2F0E94751403C08C2F0E942A
:101A100085140E94B31476C18D2F0E94360CCC23FE
:101A200009F484C180E28D0F883010F0D11104C018
:101A30008C2F0E947B1403C08C2F0E948B140E9459
:101A4000B31474C18C2F807FCF70803211F0C29597
:101A5000C07FDD2319F0D130C9F022C0112371F00D
:101A6000002341F0013031F40E9498148C2B0E9425
:101A7000A0145CC10E9498148C2B1DC0002319F087
:101A8000013009F453C10E94A91425C0112321F08B
:101A9000063008F04BC10EC0053008F047C11BC02E
:101AA000112361F0002331F0F701858180FF2AC105
:101AB0008F7085838C2F0E94A80C38C1002359F0A9
:101AC000D93309F030C1FFEF07EE13E0F1500040C9
:101AD0001040E1F726C18C2F0E94AF0C27C18C2F3C
:101AE00086958695837019F0813061F01FC11123AE
:101AF00021F08D2F9C2F937002C080E090E00E9417
:101B00007A0A1CC1112321F08D2F9C2F937002C0E3
:101B100080E090E00E94900A11C18C2F837009F040
:101B200047C0111107C12D2F229526952770220F2E
:101B3000220F6D2F6F70862F90E0A0E0B0E0022E94
:101B400004C0880F991FAA1FBB1F0A94D2F7D4FFA5
:101B500010C04FE050E060E070E004C0440F551F3B
:101B6000661F771F2A95D2F740955095609570951E
:101B700003C040E050E0BA01C695C695C3708A0123
:101B80009B01082B192B2A2B3B2BC901B801C23012
:101B900049F058F4C13019F00E94B012CBC00E9435
:101BA0009E12C8C00E94C212C5C00E949C12C2C030
:101BB000112319F08C2F817001C08695882309F4B8
:101BC000B9C02D2F229526952770220F220F6D2F39
:101BD0006F70862F90E0A0E0B0E0022E04C0880F66
:101BE000991FAA1FBB1F0A94D2F7D4FF10C04FE061
:101BF00050E060E070E004C0440F551F661F771F7F
:101C00002A95D2F7409550956095709503C040E0B5
:101C100050E0BA01C695C695C3708A019B01082B96
:101C2000192B2A2B3B2BC901B801C23049F058F4BB
:101C3000C13019F00E9475137DC00E9463137AC0F1
:101C40000E94871377C00E94D61274C0CF701123F0
:101C500039F08C2F0E94FC128D2F0E94A80C6AC0B4
:101C60008D2F0E94AF0C8C2F0E941D1363C0D23F9A
:101C700001F128F4D03F41F0D13FA1F03FC0D33F64
:101C8000F9F0D43F39F13AC0112341F0053008F0A2
:101C90004DC08C2F8F710E94421348C0063008F04F
:101CA00045C0F7CF112339F08C2F8F710E94FC12A1
:101CB0003DC01123C9F38C2F8F710E941D1336C0B4
:101CC000112329F08C2F8F710E94E7122FC00E94E0
:101CD000E2122CC0112349F0CF718C2F0E94FC120C
:101CE00063E08C2F0E94E81421C081E00E94FD1463
:101CF0000230E0F082E00E94FD1418C0112331F0A0
:101D0000002391F28D2F0E94940B10C0002399F2B2
:101D1000D93349F41FEF27EE33E011502040304013
:101D2000E1F700C000008D2F0E94360C88EF8C0D6B
:101D3000843020F40E94630A0E94AB02DD20C9F0C7
:101D40000E94671480FD15C0F70112820E94611481
:101D50000E94FC12C7010E94DA0E0E946114DF91FA
:101D6000CF911F910F91FF90EF90DF90CF900C9447
:101D70001D13DF91CF911F910F91FF90EF90DF9096
:101D8000CF9008950F931F93CF93DF93EC01688159
:101D900079818A810E943E148C010E9499130E94CD
:101DA0008A12B801CE010E94B60CDF91CF911F912B
:101DB0000F910895CF93DF93EC01988189812B8156
:101DC0003C81232B31F08F3F31F481E09F3F19F4A8
:101DD00003C081E001C080E080FD19C0CE010E94F7
:101DE000610281110CC00E946B14882381F08A81EA
:101DF000882369F082E0DF91CF910C94FD14CE012D
:101E00000E94C20ECE01DF91CF910C943C02DF9173
:101E1000CF9108950E9492140E9495140E94B314C9
:101E200080E090E00E947A0A80E090E00C94900AB2
:101E300080910001909101010E9403160C940A0FF9
:101E40000E9482140C94180FE92FE295EF704E2F28
:101E500050E0FA013297EE30F105B0F4EE59FF4F41
:101E60000C947322803F91F018F4883E68F40EC001
:101E7000843F51F40BC0883E48F0813F29F406C0EE
:101E800093FB882780F9089580E0089581E0089504
:101E90000E9433140E94240F0895CF93DF9300D043
:101EA00000D01F92CDB7DEB70F900F900F900F901C
:101EB0000F90DF91CF910895CF93DF9300D000D0A2
:101EC00000D0CDB7DEB726960FB6F894DEBF0FBEB2
:101ED000CDBFDF91CF9108951F93CF93DF93C09132
:101EE000010216E080910202C81799F0D0E01C9F11
:101EF000F0011D9FF00D1124ED5FFD4F40815181D8
:101F000062817381848195810E945C0F2196C770E4
:101F1000E9CFDF91CF911F91089540913302509105
:101F200034026091350270913602809137029091AF
:101F300038020C945C0F0F931F93CF93DF93809123
:101F4000380282958F7009F05DC080913502882338
:101F500009F458C08091010210910202609133028D
:101F600070913402C0913602D091370291E06F3FF8
:101F700009F090E0292F06E0811709F443C020976B
:101F800021F07F3F21F030E003C031E001C0322F6B
:101F900090E030FD34C0089FF001099FF00D11243E
:101FA000DF01AD5FBD4F11963C911197371327C0EC
:101FB0003C91361324C012963C91129731111FC0E8
:101FC00013964D915C9114974C1B5D0B483C510549
:101FD000B0F4809138028F70806180933802E85F9E
:101FE000FD4F80818F708061808383E392E00E9447
:101FF000DA0EDF91CF911F910F910C946C0F019627
:102000008770BACFDF91CF911F910F9108959F9262
:10201000AF92BF92CF92DF92EF92FF920F931F93F6
:10202000CF93DF93CDB7DEB761970FB6F894DEBFDD
:102030000FBECDBF8C0185E0F801DE011D96019039
:102040000D928A95E1F7F80140815181E2809091EB
:10205000330260913402209136023091370221150B
:10206000310531F06F3F31F481E09F3F19F403C037
:1020700081E001C080E0F82FF1709F2E80FD46C105
:10208000F801A380B48083E3C82E82E0D82EF090BC
:102090003502F501E21BF30BFF2009F4DFC080914C
:1020A0003802E83CF10508F09BC0282F207F09F09A
:1020B00052C0561313C0491311C0FE2CE1100EC0BC
:1020C0008F708061809338020E948D0FC6010E943C
:1020D000DA0E80913802F801858358C1AB2831F0BF
:1020E0005F3F31F481E04F3F19F403C081E001C04C
:1020F00080E080FD03C081E08E2502C080E090E09A
:10210000F82FF170FF2E80FF1CC0809101022091FA
:10211000020236E0821709F417C190E0389FF001FF
:10212000399FF00D1124ED5FFD4F6181561306C0FC
:102130006081461303C06281E61203C00196877076
:10214000E9CFFE2CEE2009F421C180913802816094
:10215000809338025AC0561306C0491304C0E110D8
:1021600002C0F8019FC04D875E878D859E850E94C5
:10217000480F882379F1EE2069F120913802822FEF
:1021800082958F7090E0029774F080913302909165
:10219000340298878F831986BB86AA862C87CE0146
:1021A00007960E94DA0E86E0F801A3E3B2E0019000
:1021B0000D928A95E1F70E949B0F0E948D0F0DC032
:1021C000561729F14D875E878D859E850E94480FA1
:1021D00081112CC0C8010E94DA0EFF24F394D6C0EE
:1021E000282F207F69F77A2DB98AA88A6E2D8989D0
:1021F0000E944D0F83E392E00E94DA0E86E0F60122
:1022000011928A95E9F70E948D0FF12CBFC04913F6
:10221000D9CFE110D7CFF8018583C8010E94DA0E2B
:1022200086E0F60111928A95E9F7B0C0EE2091F2AE
:1022300020913802822F82958F7090E002970CF4E3
:10224000B2CF80913302909134029A8389831B82AA
:10225000BD82AC822E83CE010196A3CFE83CF1056E
:1022600008F047C0FE2CEE2009F4B4CF561330C05E
:1022700049132EC02091380220FD21C0822F829563
:102280008F70482F50E041155105C9F0F8012583A2
:102290004F30510541F08F5F982F9295907F822F9C
:1022A0008F70892B8583C8010E94DA0E86E0F801C1
:1022B000A3E3B2E001900D928A95E1F742C086E077
:1022C000F801A3E3B2E001900D928A95E1F75EC0B8
:1022D0004D875E878D859E850E94480F811163CF53
:1022E00080913802816080933802C8010E94DA0E22
:1022F0004DC07A2DB98AA88A6E2D89890E944D0F0A
:1023000086E0F60111928A95E9F71BC0EE2009F4E8
:1023100061CF4D875E878D859E850E94480FF82E80
:10232000882309F457CF86E0F801A3E3B2E00190D7
:102330000D928A95E1F783E392E00E948E0B0E9452
:102340009B0F0E948D0F22C04D875E878D859E85D5
:102350000E943314292F22952F70223028F49F7069
:1023600039F0811105C00BC0243028F49F7049F466
:10237000805E883020F0C8010E94DA0E9F2CF92C74
:1023800005C0F8019581907F99F7F9CF8F2D61965F
:102390000FB6F894DEBF0FBECDBFDF91CF911F9176
:1023A0000F91FF90EF90DF90CF90BF90AF909F90F4
:1023B000089588EC90E008951F93CF93DF93CDB7F5
:1023C000DEB72C970FB6F894DEBF0FBECDBF4F839C
:1023D000588769877A878B879C87CE0107960E94EA
:1023E00007108823D1F09F8188852A853B85232B80
:1023F00031F08F3F31F481E09F3F19F403C081E059
:1024000001C080E080FD47C04F81588569857A858D
:102410008B859C850E945C0F3EC086E0FE0137964E
:10242000DE01119601900D928A95E1F7FF81E88512
:102430006A857B856115710531F0EF3F31F481E0EC
:10244000FF3F19F403C081E001C080E080FD23C09C
:102450002091020230E0C9010196877099274091CE
:10246000010250E084179507F1F1F983EA837D8337
:102470006C8396E0929FD001939FB00D1124AD5FC5
:10248000BD4FFE01319601900D929A95E1F7809330
:1024900002020E946C0F16E08091010290910202EC
:1024A000891771F1189FC00111248D5F9D4F0E9403
:1024B0000710882329F1E09101021E9FF0011124E9
:1024C000ED5FFD4F408151816281738184819581EF
:1024D0000E945C0F8091010290E00196877099271D
:1024E00080930102D9CF0E94200F10920202109215
:1024F0000102E3E3F2E086E0DF011D928A95E9F74D
:102500002C960FB6F894DEBF0FBECDBFDF91CF91F2
:102510001F910895089508950C948B120C948C12B9
:102520000E948E1260936A0270936B0280936C0219
:1025300090936D020C940A0F0C9490120F931F93BA
:1025400000916A0210916B0220916C0230916D0231
:10255000602B712B822B932B1F910F910C94901257
:102560000F931F9300916A0210916B0220916C02ED
:1025700030916D0260237123822393231F910F9169
:102580000C9490120F931F9300916A0210916B02AA
:1025900020916C0230916D0260277127822793276A
:1025A0001F910F910C9490120C948B120E94D412D4
:1025B0006093660270936702809368029093690249
:1025C0000C940A0F60E070E0CB010C94D6120F93CC
:1025D0001F9341E050E060E070E08A019B0104C07D
:1025E000000F111F221F331F8A95D2F7C901B801AE
:1025F0001F910F910C94D6120F931F9341E050E05E
:1026000060E070E004C0440F551F661F771F8A9575
:10261000D2F78091660290916702A0916802B09112
:1026200069028A019B01082B192B2A2B3B2BC9011C
:10263000B8011F910F910C94D6120F931F9341E094
:1026400050E060E070E004C0440F551F661F771F24
:102650008A95D2F740955095609570958091660265
:1026600090916702A0916802B09169028A019B0172
:10267000082319232A233B23C901B8011F910F9175
:102680000C94D6120F931F9341E050E060E070E08D
:1026900004C0440F551F661F771F8A95D2F780919B
:1026A000660290916702A0916802B09169028A0166
:1026B0009B01082719272A273B27C901B8011F9129
:1026C0000F910C94D6120F931F93009166021091F4
:1026D00067022091680230916902602B712B822B76
:1026E000932B1F910F910C94D6120F931F9300916F
:1026F000660210916702209168023091690260239E
:102700007123822393231F910F910C94D6120F9360
:102710001F93009166021091670220916802309128
:10272000690260277127822793271F910F910C94CC
:10273000D612089527E0929F800D1124E82FE69588
:10274000E695E695877051E001C0550F8A95EAF746
:1027500085E0E89FF0011124E75CFD4F20E030E0C8
:1027600070E04081CB01022E02C0969587950A94B5
:10277000E2F78170819584278523842781932F5FD9
:102780003F4F2530310569F7089527E0929F800D6E
:102790001124682F669566956695982F977085E049
:1027A000689FB001112440E050E080E0FB01E40F9D
:1027B000F51FE75CFD4F208130E0092E02C0369501
:1027C00027950A94E2F721703327042E01C0220FC7
:1027D0000A94EAF7822B4F5F5F4F4530510531F77E
:1027E0000895BF92CF92DF92EF92FF920F931F93C3
:1027F000CF93DF938C01C0906602D0906702E09087
:102800006802F090690280916A0290916B02A09137
:102810006C02B0916D02C82AD92AEA2AFB2ACFE1BC
:10282000D0E0D701C6010C2E04C0B695A7959795A8
:1028300087950A94D2F780FD04C0219790F7B12CB8
:1028400007C0BC2EB8018C2F0E94C7020197A9F3C4
:102850008B2DDF91CF911F910F91FF90EF90DF9023
:10286000CF90BF900895CF93DF93EC010E94F113B6
:10287000BE010E94C702DF91CF9108951F93CF93AD
:10288000DF93EB0190910002992321F0CB010E948C
:10289000331413C0882349F0CB010E94F113182F81
:1028A000682FCE010E949A1304C0CB010E94C51369
:1028B000182FBE01812F0E94C702DF91CF911F9177
:1028C000089580916E0285958595859508958091EE
:1028D0006E028770089590916E02977081E009F4FE
:1028E00080E0089580917A02089590917A02892B70
:1028F00080937A020895809590917A02892380933B
:102900007A02089510927A02089590917902892BA3
:10291000809379020895809590917902892380931C
:10292000790208951092790208951092780208951C
:1029300080916F02089508950C949B140C949C143C
:1029400090916F02981721F080936F020C949E145F
:10295000089580916F02882329F010926F0280E021
:102960000C949E140895E0910001F0910101809172
:102970007A028083E0910001F091010190818091C1
:102980007902892B8083E0910001F091010190810F
:1029900080917802892B808380916F02882381F057
:1029A000E0910001F09101019081892B8083809159
:1029B0000001909101010E94BD1581110E94A9148E
:1029C00080910001909101010C946F0A0C949B146A
:1029D00098E0899F90011124262B20936E020E947B
:1029E000FC1280916E028595859585950C94E61470
:1029F00010926E0280E00C94E61420916E02809595
:102A0000822380936E02982F977079F430E0482FDC
:102A1000082E000C550B2417350739F08595859540
:102A200085950E941D130C94F814089580E090E0A1
:102A30000E94812221E08C3E9E4F09F020E0822FEF
:102A4000089582E090E00C94792283E090E00C9469
:102A50007922CF9384E090E00E947922C82F81E20E
:102A600090E00E9479222C2F30E0A901582BCA0156
:102A7000CF910895CF93C92F682F84E090E00E94F2
:102A800087226C2F81E290E0CF910C948722AB01DA
:102A9000BC018FE090E00C949922AB01BC0183E172
:102AA00090E00C94992260E070E0CB010C944D15FD
:102AB00060E070E0CB010E9447150C9453156CEE5A
:102AC0007EEF80E090E00E94A52260E082E090E04E
:102AD0000E94872260E083E090E00E9487221092AB
:102AE0006A0210926B0210926C0210926D0260E00A
:102AF00084E090E00E94872260E081E290E00E9402
:102B0000872260E085E090E00E94872260E086E016
:102B100090E00E9487226FEF87E090E00E9487227A
:102B200040E050E0BA0188E090E00E94992260E025
:102B30008DE090E00E94872240E050E0BA0188E1F9
:102B400090E00E94992260E087E190E00E94872255
:102B500040E050E0BA018CE190E00E94992260E0F0
:102B600080E290E00E9487220C9458150C945F1527
:102B7000682F8EE090E00C948722FC01329697E05B
:102B800080E0915029F021912223D9F38F5FF9CF72
:102B90000895662349F0FC01329608962191621748
:102BA00029F0E817F907D1F780E0089581E008954A
:102BB0009C01FC0132969FEF80E04191461789F01D
:102BC0009F3F19F4411101C0982F8F5F8630A9F7FC
:102BD0009F3F39F0F901E90FF11D97FDFA956283E6
:102BE000089508959C012A5F3F4FFC0142814613DE
:102BF00001C01282019682179307B9F708950C94C9
:102C0000D8150C94F215029626E0FC0111922A9533
:102C1000E9F7089508950C940A160C940A16CF93B8
:102C20000E940D160E94F3040E940B16C0E08C2F28
:102C30000E948F04811104C0CF5FCA30C1F701C068
:102C400081E0CF9108950C940A160C9423160E94EB
:102C5000251680919603843049F110927C0220E47D
:102C600088E190E00FB6F894A895809360000FBEBD
:102C70002093600080E00E94AB020E94251683B77B
:102C8000817F846083BF83B7816083BF7894889598
:102C900083B78E7F83BF0FB6F894A89580916000AC
:102CA000886180936000109260000FBE08950C94BC
:102CB0000A160E94200F0E94630A0E94AB020C9425
:102CC00057161F920F920FB60F9211248F939F9356
:102CD000AF93BF9380917C02811113C080919F02BA
:102CE0009091A002A091A102B091A2024196A11DD3
:102CF000B11D80939F029093A002A093A102B09374
:102D0000A202BF91AF919F918F910F900FBE0F9034
:102D10001F90189582E084BD93E095BD9AEF97BD12
:102D200080936E0008952FB7F89480919F02909140
:102D3000A002A091A102B091A2022FBF08959C0110
:102D40004FB7F89480919F029091A002A091A102A8
:102D5000B091A2024FBF821B930B089578941F92EB
:102D60000F920FB60F9211248F939F93AF93BF933F
:102D700080919F029091A002A091A102B091A20225
:102D80000196A11DB11D80939F029093A002A09374
:102D9000A102B093A202BF91AF919F918F910F902A
:102DA0000FBE0F901F90189587E797E79093010843
:102DB000809300089AE088E10FB6F894A895809374
:102DC00060000FBE90936000FFCF0E941615811126
:102DD00002C00E94B6150E94211580937B020E94BA
:102DE00029159093A4028093A3020E942515682FB1
:102DF00070E080E090E00E949C1260916602709109
:102E0000670280916802909169020C94D412881F25
:102E10008827881F089591E0883F08F490E0892F63
:102E20000895982F907F903BF1F038F49039D9F0C5
:102E3000903AC9F09038C9F416C0903D49F018F4A2
:102E4000903C31F012C0903E71F0903F19F00DC0EF
:102E500082E00895815F8F3040F4E82FF0E0E4577E
:102E6000FE4F8081089583E0089580E008950F93D8
:102E7000022F0F77242F2F776F70462F406BDC01C6
:102E8000ED91FC9163E070E009950F9108950F9327
:102E9000022F0F77242F2F776F70462F4069DC01A8
:102EA000ED91FC9163E070E009950F9108950F9307
:102EB000022F0F77242F2F776F70462F4068DC0189
:102EC000ED91FC9163E070E009950F9108950F93E7
:102ED0001F93411520E252073CF44115A0EE5A071A
:102EE00034F09A01305E05C02FEF3FE302C020E0CE
:102EF00030E08901000F012F001F110B11952F7772
:102F0000462F4F70406EDC01ED91FC9163E070E064
:102F100009951F910F910895FC01738362830895B1
:102F2000FC01758F648F0895CF93DF93EC011DA290
:102F30001FA21EA2BC01685D7F4F40EC88519F4FCD
:102F40000E94B7191B821A821D821C821F821E8258
:102F5000198618861B861A861D861C861F861E8665
:102F6000198A188A1B8A1A8A1D8A1C8A1F8A1E8A35
:102F7000198E188E1B8E1A8E1D8E1C8E1F8E1E8E05
:102F800019A218A2DF91CF910895EF92FF920F93AB
:102F90001F93CF93DF93EA018A01060F111D885119
:102FA0009F4F7C01C017D10729F06991C7010E948A
:102FB000BE19F8CFDF91CF911F910F91FF90EF9045
:102FC0000895FC01718360830895FC0171A360A3DF
:102FD0000895AF92BF92CF92DF92EF92FF920F933C
:102FE0001F93CF93DF9300D01F92CDB7DEB77C0144
:102FF0006B01142FB22EA02EDC0195968C91959723
:103000008430F1F45A96ED91FC915B97309709F476
:10301000BEC0CB01019763E070E00E944B22CB0160
:10302000880F991F860F971F4983BA820B834C2DF7
:10303000481B9E012F5F3F4FBC01C7010995B4C0DB
:103040006230710509F452C06330710529F06130B6
:10305000710509F099C080C0842F807F803AF9F013
:1030600058F48038B1F0803909F091C0D701149636
:10307000ED91FC9115972AC0803EB9F0803FD9F0C0
:10308000803B09F084C0D7011296ED91FC91139713
:103090001DC0D7011696ED91FC91179717C0D70167
:1030A0001896ED91FC91199711C0D7011A96ED91E0
:1030B000FC911B970BC0423F09F069C0D7011C96D9
:1030C000ED91FC911D97309731F461C0309709F470
:1030D0005EC0123F21F42A2D4B2D62EF04C02A2D31
:1030E0004B2D612F6F70C70109955EC0842F807FC3
:1030F000803D59F0803F79F0803C09F048C0D7010D
:103100001E96ED91FC911F9718C0D7015096ED9136
:10311000FC91519712C0433F31F4D7015296ED9183
:10312000FC91539707C0413F91F5D7015496ED911B
:10313000FC915597309739F42AC0309741F1812F8F
:103140008D7F813F19F44B2D612F03C04B2D612FD3
:103150006F70C701099528C0842F0E940B17882320
:1031600031F0D7015696ED91FC91579707C0163F65
:1031700071F4D7015896ED91FC915997309739F039
:10318000612FC701099510C064307105D8F4D701CB
:103190005C96ED91FC915D97309731F00A2D2B2DC7
:1031A000412FB601C7010995D7015E96ED91FC91BB
:1031B0005F97309751F00A2D2B2D412FB601C70193
:1031C000099503C0C12CD12CE2CF0F900F900F9026
:1031D000DF91CF911F910F91FF90EF90DF90CF90F3
:1031E000BF90AF900895FF920F931F93CF93DF93FB
:1031F000EC01162F862F0E940B17882369F0FDA083
:1032000081E08DA300E020E0412F61E070E0CE017D
:103210000E94E917FDA270C0812F0E9407174DA1DF
:10322000882309F440C0443029F01AA381E090E0DB
:103230009FA38EA3812F0E941117813031F070F06F
:10324000823051F0833041F02AC08DA300E020E0AD
:10325000412F61E070E01EC08DA34EC0103FB1F061
:10326000173FE9F42EA13FA1C90163E070E00E947D
:103270004B22FE01E80FF91F12A3B9016F5F7F4FC8
:103280007FA36EA30CA12BA14AA104C084E08DA34F
:103290001AA329C0CE010E94E9171DA22DC01DA2AC
:1032A0001FA21EA229C0442339F12EA13FA1C901AA
:1032B00063E070E00E944B22FE01E80FF91F12A3A9
:1032C000B9016F5F7F4F7FA36EA38130910581F0BD
:1032D000029791F40CA12BA14AA1CE010E94E917FB
:1032E0008DA1843049F081E090E09FA38EA304C0BB
:1032F000423011F400E0EFCFDF91CF911F910F9199
:10330000FF900895CF92DF92EF92FF920F931F9359
:10331000CF93DF93EC01E8A1F9A1309709F009956B
:103320006E0188EEC80ED11CC6010E94EE19E12C78
:10333000F12C082F10E0E016F10680F460E0C601E1
:103340000E94041A682FCE010E94F31861E0C601A2
:103350000E94151A8FEFE81AF80AEDCFDF91CF918E
:103360001F910F91FF90EF90DF90CF900895FC0197
:103370004283748363831182108208951F93CF93D5
:10338000DF93EC01162F0E942D1AE82F298130E0DF
:10339000C90101966A8170E00E945F22488150E075
:1033A0008417950729F48E2F0E94301A80E012C0EE
:1033B0008B819C81DC01A20FB31F1C93898190E05B
:1033C00001966A8170E00E945F2289838E2F0E949D
:1033D000301A81E0DF91CF911F9108950F931F93D1
:1033E000CF938C010E942D1AF801C1812081C21750
:1033F00018F4F8019281C90FC21B0E94301A8C2F59
:10340000CF911F910F910895FC012081862F90E0AC
:10341000820F911D628170E00E945F220380F4811F
:10342000E02DE80FF91F808108951F93CF93DF935C
:10343000EC01162F0E942D1A282F3881812F90E041
:10344000830F911D6A8170E00E945F228883822F22
:10345000DF91CF911F910C94301A8FB7F894089593
:103460008FBF0895089508950F931F93CF93DF930F
:10347000CDB7DEB727970FB6F894DEBF0FBECDBF2E
:103480008C01CE0101960E94A11C882309F18A813A
:103490000E9411179A819D839B819E839C819F83AB
:1034A00081110EC08981843041F0873031F086303F
:1034B00031F0853031F781E003C083E001C082E064
:1034C000AE014B5F5F4F682FC8010E94C517D9CF6F
:1034D00027960FB6F894DEBF0FBECDBFDF91CF9118
:1034E0001F910F910895DF92EF92FF920F931F9318
:1034F000CF93DF9300D000D0CDB7DEB77B01142F80
:10350000D22E4A832B830C83842F0E9411178111A2
:103510001CC082E0E816F10471F083E0E816F104C3
:1035200021F0EA94EF28C1F40CC0073F11F487E0C2
:1035300006C084E004C087EFD812FBCF86E0898301
:1035400007C0173FB1F785E0FACF12951F701983B6
:10355000CE0101960E949C1C0F900F900F900F902F
:10356000DF91CF911F910F91FF90EF90DF90089521
:103570000E94B00585EA92E00E94941763E77AE121
:1035800085EA92E00E94E11764E37AE185EA92E03D
:103590000E94E51762E37AE185EA92E00E949017C3
:1035A00063E37AE185EA92E00C948C17209196030C
:1035B0002430D9F49B01FC0181818F708093E90054
:1035C00040E050E064E070E0C9010E94621D81119A
:1035D0000FC09091E800892F807295FD08C09091EE
:1035E000E8009E779093E800089582E0089580E0D7
:1035F0000895209196032430A1F4FC0181818F70FD
:103600008093E9002091F3008091F20090E0922BEA
:10361000892B49F08091E8008E778093E8000C9424
:103620000B1F82E0089580E00895FC0180919603CD
:10363000843059F491819F709093E9008091E80063
:1036400080FF03C0CF010C94F91A089520919603CE
:10365000243011F080E00895FC0186818F70809302
:10366000E9008091E80082FFF5CF8091E80085FFB6
:10367000F1CFCB0140E050E064E070E00E94AD1D6E
:103680008091E80085FD05C08091E8008B778093EC
:10369000E80081E008958091850208950895CF9310
:1036A000DF9300D01F92CDB7DEB790919603943090
:1036B00019F589837B836A8382E08093E9008FEF29
:1036C0009091E800815095FD06C095ED9A95F1F72F
:1036D00000008111F5CF8091E80085FF0DC040E02A
:1036E00050E063E070E0CE0101960E94621D80917F
:1036F000E8008E778093E8000F900F900F90DF9195
:10370000CF910895BC0184E00C944F1BBC0183E071
:103710000C944F1BCF93DF9321E02093E9002FEF10
:103720003091E800215035FD06C035ED3A95F1F7AE
:1037300000002111F5CF2091E80025FF14C0EC0115
:1037400040E050E068E070E00E94621D8091E80077
:103750008E778093E80088E0FE01ADE7B2E001904B
:103760000D928A95E1F7DF91CF91089580919503AD
:10377000811109C00E943E1F0E949B1F8091E200A0
:1037800084608093E200089510929503089508954F
:1037900008950C94591642E061EC81E00E94B71E36
:1037A00042E261EC82E00E94B71E42E361E883E0FE
:1037B0000E94B71E42E361E884E00C94B71E80913A
:1037C0009803833009F460C030F4813071F08230A6
:1037D00009F499C008958A3009F485C08B3009F442
:1037E0006BC0893009F0A7C020C080919703813A4F
:1037F00009F0A1C08091E800877F8093E800809164
:103800009B0390919C03892B21F468E08DE792E063
:1038100003C060E080E090E070E00E94F81D8091BD
:10382000E8008B778093E8000895809197038132B8
:1038300009F081C080919B0390919C03029708F04E
:103840007AC08091E800877F8093E8008091E8004B
:1038500082FD05C0809196038111F8CF6CC0209144
:10386000F3008091F20090E0922B029729F480916E
:10387000F1008B7F813021F48091F10080938502EB
:103880008091E8008B7753C080919703813A09F0CB
:1038900052C080919B0390919C03892B09F04BC0EF
:1038A0008091E800877F8093E8008091E80080FFA6
:1038B000FCCF8091180136C0809197038132D9F5F1
:1038C00080919B0390919C03892BA9F58091E8003E
:1038D000877F8093E8000E94EC1E8091990380937B
:1038E00018010C94200F80919703813221F580916B
:1038F000E800877F8093E8000E94EC1E80919A0385
:1039000080938602089580919703813AA1F4809173
:10391000E800877F8093E8008091E80080FFFCCF7B
:10392000809186028093F1008091E8008E778093E9
:10393000E8000C94EC1E0895BC0182E091E00C9428
:10394000D61ABC0182E091E00C94261B0E94B81AA2
:1039500084B7877F84BF0FB6F894A89580916000E4
:10396000886180936000109260000FBE90E080E854
:103970000FB6F89480936100909361000FBE0E948F
:10398000B60A0E943E1F0E949B1F8091E200846045
:103990008093E20078940E9430220E94C00A8EE058
:1039A00091E00E945E0A80919603853069F40E943E
:1039B0002716809194038823B1F30E940F16882361
:1039C00091F30E944C1DEFCF0E94C80A82E091E063
:1039D0000E94151BE8CF0C94ED1C292F33272330B0
:1039E0003105C9F060F42130310581F02230310514
:1039F00009F04AC08FE990E028E332E049C0213263
:103A0000310511F12232310579F13EC082E190E0B9
:103A100027ED32E03DC099278130910561F040F0FB
:103A20008230910559F0039779F5ECE0F2E008C097
:103A3000E4E3F2E005C0E2E2F2E002C0E2E1F2E03B
:103A4000849190E09F0124C06115710541F06130BF
:103A50007105D1F489E090E023E632E019C089E0F5
:103A600090E02AE432E014C06115710541F0613044
:103A7000710551F482E390E029EE32E009C080E460
:103A800090E02BE133E004C080E090E020E030E003
:103A9000FA0131832083089580E189BD82E189BDE7
:103AA00009B400FEFDCF8091D8008F7D8093D800AF
:103AB0008091E00082608093E0008091E00081FDD1
:103AC000FCCF0895CF92DF92EF92FF920F931F9356
:103AD000CF93DF93EC018B017A010E940B1F8111C0
:103AE00033C0E114F10439F0F70180819181081BA2
:103AF000190BC80FD91FC12CD12C0115110519F1B3
:103B00008091E80085FD16C08091E8008E77809353
:103B1000E800E114F10449F0F70180819181C80EB9
:103B2000D91ED182C08285E00FC00E940B1F88235E
:103B300021F30AC089918093F10001501109FFEF30
:103B4000CF1ADF0ADACF80E0DF91CF911F910F917A
:103B5000FF90EF90DF90CF900895CF92DF92EF9299
:103B6000FF920F931F93CF93DF93EC018B017A01A8
:103B70000E940B1F811133C0E114F10439F0F701E9
:103B800080819181081B190BC80FD91FC12CD12C22
:103B90000115110519F18091E80085FD16C080918D
:103BA000E8008B778093E800E114F10449F0F70115
:103BB00080819181C80ED91ED182C08285E00FC05C
:103BC0000E940B1F882321F30AC08091F100899382
:103BD00001501109FFEFCF1ADF0ADACF80E0DF9141
:103BE000CF911F910F91FF90EF90DF90CF900895AC
:103BF00020919D0330919E032617370748F06115E9
:103C0000710539F42091E8002E772093E80001C077
:103C1000B901FC0120E06115710579F180919603ED
:103C20008823F1F18530F1F18091E80083FD3CC0FB
:103C30008091E80082FD2EC08091E80080FFEBCFEC
:103C40002091F3008091F20090E0922B61157105B4
:103C500051F08830910538F421912093F1006150A2
:103C600071090196F3CF21E0089709F020E08091D7
:103C7000E8008E778093E800CECF2111CFCF0AC025
:103C800080919603882361F0853061F08091E8008F
:103C900083FD0AC08091E80082FFF2CF80E00895A2
:103CA00082E0089583E0089581E0089520919D03C6
:103CB00030919E032617370748F06115710539F4D6
:103CC0002091E8002E772093E80001C0B901FC01A3
:103CD00020E06115710591F180919603882309F424
:103CE00040C0853009F43FC08091E80083FD3DC0AD
:103CF0008091E80082FD2FC08091E80080FFE9CF2D
:103D00002091F3008091F20090E0922B61157105F3
:103D100059F08830910540F424912093F1003196B8
:103D2000615071090196F2CF21E0089709F020E077
:103D30008091E8008E778093E800CBCF2111CCCF23
:103D40000AC080919603882361F0853061F08091EC
:103D5000E80083FD0AC08091E80082FFF2CF80E096
:103D6000089582E0089583E0089581E00895982FF2
:103D7000973068F59093E900981739F07091EC004E
:103D80002091ED005091F00003C0242F762F50E0D9
:103D900021FD02C09F5FECCF3091EB003E7F30935E
:103DA000EB003091ED003D7F3093ED003091EB0062
:103DB00031603093EB007093EC002093ED00509352
:103DC000F0002091EE0027FDE5CF80E008958F7090
:103DD0008093E90081E008958091970387FF11C0E7
:103DE0008091E80082FD05C0809196038111F8CF93
:103DF00011C08091E8008B770BC0809196038823D7
:103E000049F08091E80080FFF8CF8091E8008E773C
:103E10008093E80008952091E4003091E50095E654
:103E20004091EC00842F817040FF23C08091E80016
:103E300080FD1DC080919603882399F0853099F00C
:103E40008091EB0085FD11C04091E4005091E500A8
:103E50002417350729F3915011F09A01E1CF84E03E
:103E6000089582E0089583E0089581E0089580E058
:103E700008954091E80042FFDDCF08950E94AC1FF5
:103E80000E94B41FE0EEF0E0808181608083E8ED65
:103E9000F0E080818F77808319BCA7EDB0E08C9132
:103EA0008E7F8C9380818F7E8083109295030895FE
:103EB0000F931F93CF93DF930E94AC1F0E94B41FF8
:103EC000C8EDD0E088818F77888388818068888377
:103ED00088818F7D888319BC10929603109292037B
:103EE000109294031092930300EE10E0F801808189
:103EF0008B7F808388818160888342E060E080E0FE
:103F00000E94B71EE1EEF0E080818E7F8083E2EEBA
:103F1000F0E0808181608083808188608083F80107
:103F200080818E7F8083888180618883DF91CF91BB
:103F30001F910F910895E8EDF0E080818F7E8083DE
:103F4000E7EDF0E080818160808384E082BF81E0E2
:103F5000809395030C94581FE8EDF0E080818E7FEC
:103F600080831092E20008951092DA001092E1002E
:103F700008951F920F920FB60F9211242F933F9323
:103F80004F935F936F937F938F939F93AF93BF9361
:103F9000EF93FF938091E10082FF0BC08091E200DC
:103FA00082FF07C08091E1008B7F8093E1000E9437
:103FB0002F228091DA0080FF1FC08091D80080FFFF
:103FC0001BC08091DA008E7F8093DA008091D90047
:103FD00080FF0DC080E189BD82E189BD09B400FE8A
:103FE000FDCF81E0809396030E94B61B05C019BCEB
:103FF000109296030E94C41B8091E10080FF19C0BB
:104000008091E20080FF15C08091E2008E7F809356
:10401000E2008091E20080618093E2008091D8000C
:1040200080628093D80019BC85E0809396030E943B
:10403000C81B8091E10084FF30C08091E20084FFC2
:104040002CC080E189BD82E189BD09B400FEFDCFAD
:104050008091D8008F7D8093D8008091E1008F7E81
:104060008093E1008091E2008F7E8093E200809156
:10407000E20081608093E20080919203882311F036
:1040800084E007C08091E30087FD02C081E001C0A9
:1040900083E0809396030E94C91B8091E10083FF17
:1040A00029C08091E20083FF25C08091E100877FD5
:1040B0008093E10082E080939603109292038091B6
:1040C000E1008E7F8093E1008091E2008E7F8093FB
:1040D000E2008091E20080618093E20042E060E0D3
:1040E00080E00E94B71E8091F00088608093F0000D
:1040F0000E94C71BFF91EF91BF91AF919F918F914C
:104100007F916F915F914F913F912F910F900FBED3
:104110000F901F9018951F920F920FB60F921124B7
:104120002F933F934F935F936F937F938F939F93BF
:10413000AF93BF93CF93DF93EF93FF93C091E900C9
:10414000CF708091EC00D82FD17080FDD0E8109214
:10415000E9008091F000877F8093F00078940E94BE
:10416000CF201092E9008091F00088608093F000E9
:10417000CD2BCF70C093E900FF91EF91DF91CF91EC
:10418000BF91AF919F918F917F916F915F914F916F
:104190003F912F910F900FBE0F901F9018951F9376
:1041A000CF93DF93CDB7DEB7AA970FB6F894DEBFF3
:1041B0000FBECDBFE7E9F3E08091F100819323E0EA
:1041C000EF39F207C9F70E94DF1B8091E80083FFF7
:1041D0002EC18091970390919803492F50E04A3067
:1041E000510508F024C1FA01E059FF4F0C947322E5
:1041F000803821F0823809F01AC108C080919303F9
:1042000090919403992389F082600FC080919B0361
:104210008F70873008F00BC18093E9008091EB002C
:1042200085FB882780F91092E9009091E800977F3C
:104230009093E8008093F1001092F100D1C0282FF4
:104240002D7F09F0F4C0882319F0823061F0EFC0AF
:1042500080919903813009F0EAC0933009F080E041
:10426000809394032EC08091990381112AC080917C
:104270009B038F702FEF280F263008F0D8C0809353
:10428000E9002091EB0020FF1CC0933021F48091C5
:10429000EB00806214C09091EB0090619093EB0072
:1042A00021E030E0A90102C0440F551F8A95E2F7D2
:1042B0004093EA001092EA008091EB0088608093BE
:1042C000EB001092E9008091E800877F8093E8007E
:1042D0000E94EC1EACC08111AAC0109199031F77F7
:1042E0008091E3008078812B8093E3008091E80047
:1042F000877F8093E8000E94EC1E8091E80080FF99
:10430000FCCF8091E30080688093E300111102C02C
:1043100082E001C083E08093960389C08058823098
:1043200008F085C08091990390919A038C3D53E0E9
:10433000950779F583E08A838AE289834FB7F894F9
:10434000DE01139620E03EE051E2E32FF0E05093CF
:104350005700E49120FF03C0E295EF703F5FEF70DC
:104360008E2F90E0EA3010F0C79601C0C0968D9372
:104370009D932F5F243149F74FBF8091E800877FDD
:104380008093E8006AE270E0CE0101960E94F81D79
:1043900016C060919B0370919C03AE014F5F5F4F0D
:1043A0000E94EB1CBC01892B09F441C09091E800EC
:1043B000977F9093E80089819A810E94561E809190
:1043C000E8008B778093E80032C0803881F58091D7
:1043D000E800877F8093E800809192038093F1004A
:1043E0008091E8008E7772CF811121C0809199036E
:1043F00090919A0399270297D4F48091E800877FDF
:104400008093E80080919903809392030E94EC1EB0
:1044100080919203811106C08091E30087FD02C064
:1044200081E001C084E0809396030E94CB1B8091C1
:10443000E80083FF0AC08091E800877F8093E8004E
:104440008091EB0080628093EB00AA960FB6F894FF
:10445000DEBF0FBECDBFDF91CF911F9108950895AC
:10446000CF93809196038823A1F0C091E900CF708B
:104470009091EC00892F817090FD80E8C82B1092FC
:10448000E9008091E80083FD0E94CF20CF70C093A7
:10449000E900CF910895AA1BBB1B51E107C0AA1FD9
:1044A000BB1FA617B70710F0A61BB70B881F991FD5
:1044B0005A95A9F780959095BC01CD01089597FB79
:1044C000072E16F4009407D077FD09D00E944B22E6
:1044D00007FC05D03EF4909581959F4F0895709507
:1044E00061957F4F0895EE0FFF1F0590F491E02D29
:1044F0000994F999FECF92BD81BDF89A992780B5AC
:104500000895A8E1B0E042E050E00C94AD22262FDF
:10451000F999FECF92BD81BDF89A019700B40216B9
:1045200039F01FBA20BD0FB6F894FA9AF99A0FBE67
:1045300008950396272F0E9488220E948722252F04
:104540000E948822242F0C9488220196272F0E94F3
:1045500088220C948722DC01CB01FC01F999FECF63
:1045600006C0F2BDE1BDF89A319600B40D924150FB
:0A4570005040B8F70895F894FFCF0B
:10457A0070020383400000010440000001004B1B4D
:10458A008A1B4E1B861B821B01E200E900EA00B56A
:10459A0000B600B700CD008301CC008A01920194D5
:1045AA00012102230224022502260227022A02B33B
:1045BA0000B4006F007000818283313332363534A3
:1045CA00C6F4F5F6F7976694909193E200E900EA4B
:1045DA0000B500B600B700CD008301CC008A019275
:1045EA000194012102230224022502260227022A1B
:1045FA0002B300B4006F00700081828302030200DC
:0C460A000001000101010101000101009C
:00000001FF
